:100000000C942A000C943F000C943F000C943F0089
:100010000C943F000C943F000C943F000C943F0064
:100020000C943F000C943F000C943F000C943F0054
:100030000C943F000C943F000C943F000C943F0044
:100040000C943F000C943F000C943F000C943F0034
:100050000C943F0011241FBECFE5D8E0DEBFCDBF1A
:1000600010E0A0E6B0E0E8E5F1E002C005900D92F6
:10007000A237B107D9F70E9497000C94AA000C94FC
:10008000000088BB9098919A84EF91E028EC30E0D2
:10009000F9013197F1F70197D9F7919880EA9FE03C
:1000A0000197F1F708958FEF87BB81BB81E00E9434
:1000B000410088E30E94410080E80E9441008EE0F8
:1000C0000E94410080EA9FE00197F1F7089588BB04
:1000D000909A919A84EF91E028EC30E0F901319701
:1000E000F1F70197D9F7919880EA9FE00197F1F72E
:1000F0000895EF92FF921F93CF93DF93EC0110E0EE
:1001000080EAE82E8FE0F82E06C00E946700C70143
:100110000197F1F71F5FFE01E10FF11D8081882338
:10012000A1F7DF91CF911F91FF90EF9008950E946A
:10013000530080E690E00E94790080EC0E9441002C
:1001400087E690E00E9479008CE00E94410080E008
:0801500090E00895F894FFCF40
:10015800417369746861004E6176617261746E659D
:02016800000095
:00000001FF
